:020000040800F2
:100000002808002045010008050F0008A10A000883
:10001000010F000877020008D9270008000000003F
:10002000000000000000000000000000311F000878
:100030007B020008000000004D1700081D2000088A
:100040005F0100085F0100085F0100085F01000810
:100050005F0100085F0100085F0100085F01000800
:100060005F01000819080008410800085F01000846
:100070005F0100085F0100085F0100085F010008E0
:100080005F0100085F0100085F0100085F010008D0
:100090005F0100085F0100085F0100085F010008C0
:1000A0005F0100085F0100085F0100085F010008B0
:1000B0005F0100085F0100085F0100085F010008A0
:1000C0005F0100085F0100085F0100085F01000890
:1000D0005F0100085F0100085F0100087924000843
:1000E0005F0100085F0100085F0100085F01000870
:1000F0005F0100085F0100085F0100085F01000860
:100100005F0100085F0100085F0100085F0100084F
:100110005F0100085F010008752100085F01000809
:100120005F0100085F0100085F0100085F0100082F
:10013000DFF80CD000F06EF800480047D52D00081D
:10014000280800200648804706480047FEE7FEE7EB
:10015000FEE7FEE7FEE7FEE7FEE7FEE7FEE7FEE777
:100160002120000831010008D2B201E000F8012B83
:10017000491EFBD270470022F6E710B513460A4627
:1001800004461946FFF7F0FF204610BD30B505467E
:100190002A460B4612F8010B13F8014B08B1A04296
:1001A000F8D01CB1002802D06D1CF1E7284630BD04
:1001B0002DE9F05F0546002092469B46884606469C
:1001C000814640241BE0284641464746224600F02F
:1001D00042F853465A46C01A914110D31146184668
:1001E000224600F029F82D1A67EB01084F462246F7
:1001F0000120002100F020F817EB00094E41201EDD
:10020000A4F10104DFDC484631462A464346BDE8F6
:10021000F09F0000064C074D06E0E06840F0010347
:1002200094E8070098471034AC42F6D3FFF784FFF8
:100230000450000824500008202A04DB203A00FA69
:1002400002F1002070479140C2F1200320FA03F32D
:10025000194390407047202A04DB203A21FA02F02B
:100260000021704721FA02F3D040C2F120029140F0
:1002700008431946704700BFFEE7704710B50024D9
:100280004FF400710B4800F009FC0B4802F01EFD12
:100290000CE04FF4FA73002208A109A000F012F854
:1002A00000B110BD00F0CCF9601CC4B20A2CF0DB28
:1002B00000BFF6E7000C014040420F004F4B00002A
:1002C000415400002DE9F04106460C4615461F46F4
:1002D0002748B0F800046FF30E002549A1F8000488
:1002E000324624A1254802F0F4F91CB915B90120C1
:1002F000BDE8F0814FF47A7107FB01F002F0E6FCF3
:1003000000201B49B1F80014C1F30E01184A5054E3
:1003100011461BA002F070FAB4B1ADB121461448E9
:10032000FFF734FF08B1012000E0002040B9294662
:100330000F48FFF72BFF08B1012000E0002008B1B3
:100340000120D5E70020D3E744B121460848FFF754
:100350001DFF08B10120CBE70020C9E7294604486A
:10036000FFF714FF08B10120C2E70020C0E700003A
:100370002400002025730D0A000000000048004002
:100380002573000010B586B004460CB1012000E0D2
:100390000020024606A101A802F03EFA4FF4FA73CB
:1003A000002207A101A8FFF78DFF06B010BD0000D5
:1003B00041542B4349504D55583D256400000000E1
:1003C0004F4B000010B5054802F080FC04A1054821
:1003D00002F07FF9044802F079FC10BD40420F00A2
:1003E0002B2B2B000048004020A1070008B501215D
:1003F000082001F023FD4FF48070ADF800001020BC
:100400008DF8030003208DF802006946054800F0CE
:10041000AFFA4FF40070ADF800006946014800F0F3
:10042000A7FA08BD000C014010B54FF4FA73002282
:100430000DA10EA0FFF746FFA0B110A11248FFF7D3
:10044000A5FE08B1022010BD10A10F48FFF79EFEC7
:1004500008B10320F7E710A10B48FFF797FE08B19A
:100460000420F0E70020EEE74F4B000041542B43FF
:1004700049505354415455530000000053544154C3
:1004800055533A320D0A00002400002053544154C1
:1004900055533A330D0A00005354415455533A34DE
:1004A0000D0A000010B5FFF7A1FF00F02DF94FF481
:1004B0000071044800F0F2FA4FF48071014800F036
:1004C000EBFA10BD000C014030B59FB004460D465C
:1004D0002B46224606A101A802F09EF941F288337C
:1004E000002208A101A8FFF7EDFE1FB030BD0000FB
:1004F00041542B43574A41503D222573222C22253B
:10050000732200004F4B0000F0B5B9B006460F460D
:1005100014461D46642120A8FFF72DFE16B1012EBA
:1005200010D107E03B4614A214A120A8009402F0C9
:1005300073F908E03B4615A210A120A8009402F030
:100540006BF900E000BF00BF052D06DA20AB2A469C
:100550000FA102A802F060F904E020AA11A102A8EC
:1005600002F05AF94FF47A6312A216A102A8FFF71B
:10057000A9FE39B0F0BD000054435000222573227B
:100580002C222573222C25730000000055445000B6
:1005900041542B43495053544152543D25642C251A
:1005A0007300000041542B43495053544152543D71
:1005B00025730000414C5245415920434F4E4E4552
:1005C000435400004F4B000010B5044624B1012CE9
:1005D0000AD0022C18D10FE040F6C4130BA20EA1D2
:1005E0000EA0FFF76FFE10BD40F6C41307A20AA1CC
:1005F0000DA0FFF767FEF6E740F6C41303A206A1BD
:100600000CA0FFF75FFEEEE70020ECE76E6F2063C3
:1006100068616E67650000004F4B000041542B433A
:10062000574D4F44453D310041542B43574D4F44A6
:10063000453D320041542B43574D4F44453D330017
:1006400010B54FF40071064800F026FA054802F094
:100650003DFB4FF40071024800F020FA10BD00008D
:10066000000C014020A107002DE9F04186B00746AB
:100670000C4615461E464FF000083FB1224614A115
:10068000144802F026F84FF001081CE0052E06DAA7
:10069000AB1C324610A101A802F0BEF804E0AA1C6F
:1006A00012A101A802F0B8F84FF47A73002213A146
:1006B00001A8FFF707FE4FF47A73002210A120462D
:1006C000FFF700FE8046404606B0BDE8F08100001E
:1006D000257300000048004041542B4349505345C6
:1006E0004E443D25642C25640000000041542B43FA
:1006F000495053454E443D25640000003E20000013
:1007000053454E44204F4B0000B585B001210820D1
:1007100001F094FB0121880401F080FB4FF480601C
:10072000ADF8100018208DF8130003208DF812008A
:1007300004A91A4800F01CF94FF40060ADF810004D
:1007400004208DF8130004A9144800F011F94FF4A7
:10075000E13000900020ADF80400ADF80600ADF8DF
:100760000800ADF80C000C20ADF80A0069460C48F2
:1007700001F03AFF012240F22551094801F00FFF34
:10078000012240F22441064801F009FF00F00AF876
:100790000121034801F0C0FE05B000BD000C01407E
:1007A0000048004008B54FF4A06000F0E5FB2720AA
:1007B0008DF8000000208DF801008DF80200012066
:1007C0008DF80300684600F09FFB08BD10B54FF49C
:1007D000FA73002207A108A0FFF774FD08B90020F2
:1007E00010BD4FF4FA7308A202A108A0FFF76AFD3A
:1007F000F6E700004F4B000041542B4349504D4F4A
:1008000044453D31000000003E00000041542B43B0
:10081000495053454E44000010B5082000F02AF816
:1008200030B10120044908702021044800F034F957
:10083000082000F019F810BD17000020000C01403E
:1008400010B5102000F016F830B1002004490870EF
:100850002021044800F022F9102000F005F810BD16
:1008600017000020000C014001490860704700009B
:1008700014040140014600200022074B1B6803EAD4
:100880000102054B14331B680B4013B10AB1012060
:1008900000E00020704700000004014000212349CF
:1008A0008279002A3AD00A46126803689A430B46B6
:1008B0001A600A1D126803689A430B1D1A600279B8
:1008C00011440A6803681A430A60184A0832126819
:1008D00003689A43154B08331A601A1D126803689F
:1008E0009A43124B0C331A604279102A0ED11A1F08
:1008F000126803681A430D4B08331A601A1D1268F8
:1009000003681A43094B0C331A600DE0074942791A
:1009100011440A6803681A430A6005E00279114429
:100920000A6803689A430A607047000000040140A7
:1009300030B500228B071C0F0F2303FA04F20B4B78
:100940008C1053F824309343084C8D1044F8253014
:1009500023468C1053F824308C07240F00FA04F43B
:100960002343024C8D1044F8253030BD080001406F
:100970002DE9F04102460025002600200023002436
:10098000002791F803C00CF00F0591F803C00CF09C
:10099000100CBCF1000F03D091F802C04CEA050521
:1009A00091F800C0BCF1000F31D0146800202BE09A
:1009B0004FF0010C0CFA00F3B1F800C00CEA03068A
:1009C0009E4220D183004FF00F0C0CFA03F7BC437A
:1009D00005FA03FC4CEA040491F803C0BCF1280FAB
:1009E00006D14FF0010C0CFA00FCC2F814C00AE06A
:1009F00091F803C0BCF1480F05D14FF0010C0CFA7F
:100A000000FCC2F810C0401C0828D1D31460B1F813
:100A100000C0BCF1FF0F34DD546800202EE000F16F
:100A2000080C4FF0010808FA0CF3B1F800C00CEA0A
:100A300003069E4221D183004FF00F0C0CFA03F7FE
:100A4000BC4305FA03FC4CEA040491F803C0BCF172
:100A5000280F05D100F1080C08FA0CF8C2F8148030
:100A600091F803C0BCF1480F07D100F1080C4FF01A
:100A7000010808FA0CF8C2F81080401C0828CED3F0
:100A80005460BDE8F0810246002093680B400BB132
:100A9000012000E00020704741617047016170470C
:100AA00000BFFEE770B502460024002500230020A9
:100AB000958A138B1B0445EA030626F07F4404EA5B
:100AC00001068E4201D1012000E0002070BD21B15D
:100AD000028842F00102028004E002884FF6FE73B1
:100AE0001A4002807047000000B585B0012148051A
:100AF00001F094F90121082001F0A0F9C020ADF81F
:100B0000000003208DF802001C208DF803006946C8
:100B10000F48FFF72DFF0020ADF808004BF6FF70DF
:100B2000ADF80A001020ADF80C008001ADF80E0001
:100B30000001ADF810000748019001A9064800F037
:100B400043F801210448FFF7C2FF05B000BD0000D3
:100B5000000C0140801A06000054004021B10288B8
:100B600042F48072028004E002884FF6FF631A406C
:100B70000280704721B1028842F40072028004E0D2
:100B800002884FF6FF531A40028070470CB50246A8
:100B9000002000230193009300920B0F019321F09A
:100BA0007F41019B1BB1009B1433009303E0090CB0
:100BB000009B18330093009B1B680B400BB1012076
:100BC00000E000200CBD00002DE9F04385B0044694
:100BD0000D460026B1460427DFF8CC80A6884FF6E4
:100BE000C0700640684601F039F9DDF808802F48EA
:100BF000B8FBF0F01FFA80F946EA0906A6802088C3
:100C00004FF6FE7108402080002629492868884256
:100C10000CD828684000B8FBF0F087B2042F00DA47
:100C200004273E4309F10100208427E0E8884BF6C1
:100C3000FF71884206D1286800EB4000B8FBF0F055
:100C400087B209E0286800EBC00101EB0010B8FB97
:100C5000F0F087B247F48047C7F30B0008B947F0BC
:100C6000010747F4004006434FF4967009FB00F07B
:100C70004FF47A7190FBF1F0401C2084A683208809
:100C800040F00100208026884FF6F5300640A88805
:100C90006989084306432680A88929890843208159
:100CA00005B0BDE8F083000000127A0040420F005A
:100CB000A086010012B141F0010102E04FF6FE737F
:100CC00019400182704701827047000070B50446E8
:100CD0000D4600BF4FF400311C48FFF757FF0028B6
:100CE000F8D101211948FFF739FF00BF184917480B
:100CF000FFF7D8FE0028F9D0002278211348FFF72B
:100D0000D9FF00BF13491148FFF7CCFE0028F9D0E6
:100D100021460E48FFF7D7FF00BF0E49891C0B483C
:100D2000FFF7C0FE0028F8D029460848FFF7CBFFA0
:100D300000BF0849891C0548FFF7B4FE0028F8D019
:100D400001210248FFF716FF70BD0000005400406B
:100D500001000300820007000EB500F027F8012112
:100D6000402001F06BF81020ADF8080048208DF805
:100D70000B0002A90C48FFF7FBFD0121084601F01A
:100D80005DF804210846FFF7D3FD102000900020F5
:100D90008DF804000C208DF8050001208DF8060068
:100DA0006846FFF77BFD0EBD0018014008B54FF403
:100DB000C06000F0E1F80A208DF8000001208DF8F5
:100DC000010002208DF8020001208DF80300684622
:100DD00000F09AF808BD00000EB500F027F80121D8
:100DE000402001F02BF80820ADF8080048208DF8CD
:100DF0000B0002A90C48FFF7BBFD0121084601F0DA
:100E00001DF803210420FFF793FD08200090002027
:100E10008DF804000C208DF8050001208DF80600E7
:100E20006846FFF73BFD0EBD0018014008B54FF4C2
:100E3000C06000F0A1F809208DF8000001208DF8B5
:100E400001008DF802008DF80300684600F05CF8A0
:100E500008BD000008B50121482000F0EFFF202068
:100E6000ADF8000010208DF8030003208DF802007B
:100E700069460C48FFF77CFD2020ADF800001020EB
:100E80008DF8030003208DF8020069460648FFF73D
:100E90006FFD20210348FFF701FE20210248FFF7E4
:100EA000FDFD08BD000C01400018014010B50446CE
:100EB000412C24D10821084600F0CBFC3D21112013
:100EC00000F04AFE8621172000F046FE7F212620F2
:100ED00000F042FE1E212D2000F03EFE00212C20BD
:100EE00000F03AFE8D212A2000F036FE3E212B2014
:100EF00000F032FE022001F0E9FE00F02EFC10BDF1
:100F000000BFFEE77047000070B5002100230F22EC
:100F1000C47804B3154C246804F4E064C4F5E064B8
:100F2000210AC1F10403CA40447804FA03F1847829
:100F30001440214309010E4C0678A155047804F0B1
:100F40001F050124AC4005786D11AD0005F1E025C9
:100F5000C5F8004109E0047804F01F050124AC4005
:100F6000044D0678761145F8264070BD0CED00E082
:100F700000E400E080E100E002490143024A116020
:100F8000704700000000FA050CED00E010B50020ED
:100F900000F001F810BD70B50646002415E004F11C
:100FA000B001C8B201F01AFC002001F017FC1020BB
:100FB00001F014FC002504E0304601F016FC681C2A
:100FC000C5B2802DF8DB601CC4B2082CE7DB70BD15
:100FD00010B52C4801F07AFEAE2001F0FFFB202076
:100FE00001F0FCFB102001F0F9FBB02001F0F6FB52
:100FF000C82001F0F3FB002001F0F0FB102001F00D
:10100000EDFB402001F0EAFB812001F0E7FBFF202F
:1010100001F0E4FBA12001F0E1FBA62001F0DEFBE2
:10102000A82001F0DBFB3F2001F0D8FBA42001F059
:10103000D5FBD32001F0D2FB002001F0CFFBD5205F
:1010400001F0CCFBF02001F0C9FBD92001F0C6FB78
:10105000222001F0C3FBDA2001F0C0FB122001F0D6
:10106000BDFBDB2001F0BAFB202001F0B7FB8D2097
:1010700001F0B4FB142001F0B1FBAF2001F0AEFB96
:1010800010BD000040420F0070B504460D4605F14A
:10109000B001C8B201F0A2FB102141EA141001F026
:1010A0009DFB04F00F0141F0010001F097FB70BDC2
:1010B0002DE9F04107460E4600250024A0460925EB
:1010C00056E031463846FFF7DFFF002409E005EB24
:1010D000450104EB41114E4A505C01F086FB601C57
:1010E000C4B2182CF3DB701CC1B23846FFF7CCFF3A
:1010F00000240AE005EB450104EB41111831444A94
:10110000505C01F072FB601CC4B2182CF2DBB01C06
:10111000C1B23846FFF7B8FF00240AE005EB4501ED
:1011200004EB411130313A4A505C01F05EFB601C27
:10113000C4B2182CF2DBF01CC1B23846FFF7A4FF92
:1011400000240AE005EB450104EB41114831304A27
:10115000505C01F04AFB601CC4B2182CF2DB07F1B2
:101160001800C7B208F1010000F0FF08681CC5B202
:101170000D2DA6DB072504216020FFF785FF002445
:1011800009E005EB450104EB4111214A505C01F0F7
:101190002CFB601CC4B2182CF3DB05216020FFF788
:1011A00073FF00240AE005EB450104EB41111831FF
:1011B000174A505C01F019FB601CC4B2182CF2DB1A
:1011C00006216020FFF760FF00240AE005EB4501DF
:1011D00004EB411130310E4A505C01F006FB601CFB
:1011E000C4B2182CF2DB07216020FFF74DFF00246A
:1011F0000AE005EB450104EB41114831044A505C1B
:1012000001F0F3FA601CC4B2182CF2DBBDE8F081E7
:10121000523600082DE9F04107460E46002500240D
:10122000A0460B2556E031463846FFF72DFF002437
:1012300009E005EB450104EB4111284A505C01F03F
:10124000D4FA601CC4B2182CF3DB701CC1B238464F
:10125000FFF71AFF00240AE005EB450104EB4111FA
:1012600018311E4A505C01F0C0FA601CC4B2182C40
:10127000F2DBB01CC1B23846FFF706FF00240AE0DB
:1012800005EB450104EB41113031144A505C01F08B
:10129000ACFA601CC4B2182CF2DBF01CC1B23846A8
:1012A000FFF7F2FE00240AE005EB450104EB4111D3
:1012B00048310A4A505C01F098FA601CC4B2182CFC
:1012C000F2DB07F11800C7B208F1010000F0FF08D7
:1012D000681CC5B20F2DA6DBBDE8F08152360008B0
:1012E0002DE9F04107460E4600250024A0460425BE
:1012F00056E031463846FFF7C7FE002409E005EB0B
:10130000450104EB41114E4A505C01F06EFA601C3D
:10131000C4B2182CF3DB701CC1B23846FFF7B4FE20
:1013200000240AE005EB450104EB41111831444A61
:10133000505C01F05AFA601CC4B2182CF2DBB01CED
:10134000C1B23846FFF7A0FE00240AE005EB4501D4
:1013500004EB411130313A4A505C01F046FA601C0E
:10136000C4B2182CF2DBF01CC1B23846FFF78CFE79
:1013700000240AE005EB450104EB41114831304AF5
:10138000505C01F032FA601CC4B2182CF2DB07F199
:101390001800C7B208F1010000F0FF08681CC5B2D0
:1013A000072DA6DB072504216020FFF76DFE002432
:1013B00009E005EB450104EB4111214A505C01F0C5
:1013C00014FA601CC4B2182CF3DB05216020FFF76F
:1013D0005BFE00240AE005EB450104EB41111831E6
:1013E000174A505C01F001FA601CC4B2182CF2DB01
:1013F00006216020FFF748FE00240AE005EB4501C6
:1014000004EB411130310E4A505C01F0EEF9601CE2
:10141000C4B2182CF2DB07216020FFF735FE002450
:101420000AE005EB450104EB41114831044A505CE8
:1014300001F0DBF9601CC4B2182CF2DBBDE8F081CE
:10144000523600082DE9F04781460D461746002622
:101450000024A04659E017F808002038C6B22946F3
:101460004846FFF711FE002409E006EB460104EBB5
:101470000111294A505C01F0B8F9601CC4B20C2C6F
:10148000F3DB681CC1B24846FFF7FEFD00240AE00A
:1014900006EB460104EB01110C311F4A505C01F0D0
:1014A000A4F9601CC4B20C2CF2DBA81CC1B24846E3
:1014B000FFF7EAFD00240AE006EB460104EB011108
:1014C0001831154A505C01F090F9601CC4B20C2C24
:1014D000F2DBE81CC1B24846FFF7D6FD00240AE063
:1014E00006EB460104EB011124310B4A505C01F07C
:1014F0007CF9601CC4B20C2CF2DB09F10C0000F08A
:10150000FF0908F1010000F0FF0817F808000028A3
:10151000A1D1BDE8F0870000723D00082DE9F0413F
:1015200007460E4600250024A04600BF56E031467F
:101530003846FFF7A9FD002409E005EB450104EB5F
:1015400041114E4A505C01F050F9601CC4B2182C95
:10155000F3DB701CC1B23846FFF796FD00240AE0A9
:1015600005EB450104EB41111831444A505C01F090
:101570003CF9601CC4B2182CF2DBB01CC1B2384676
:10158000FFF782FD00240AE005EB450104EB411161
:1015900030313A4A505C01F028F9601CC4B2182C72
:1015A000F2DBF01CC1B23846FFF76EFD00240AE002
:1015B00005EB450104EB41114831304A505C01F024
:1015C00014F9601CC4B2182CF2DB07F11800C7B282
:1015D00008F1010000F0FF08681CC5B2042DA6DB6D
:1015E000082504216020FFF74FFD002409E005EBEA
:1015F000450104EB4111214A505C01F0F6F8601CF2
:10160000C4B2182CF3DB05216020FFF73DFD002458
:101610000AE005EB450104EB41111831174A505C13
:1016200001F0E3F8601CC4B2182CF2DB0621602044
:10163000FFF72AFD00240AE005EB450104EB411108
:1016400030310E4A505C01F0D0F8601CC4B2182C46
:10165000F2DB07216020FFF717FD00240AE005EB0D
:10166000450104EB41114831044A505C01F0BDF8DA
:10167000601CC4B2182CF2DBBDE8F08152360008C1
:101680002DE9F04107460E4600250024A0460F250F
:1016900056E031463846FFF7F7FC002409E005EB39
:1016A000450104EB4111284A505C01F09EF8601C92
:1016B000C4B2182CF3DB701CC1B23846FFF7E4FC4F
:1016C00000240AE005EB450104EB411118311E4AE4
:1016D000505C01F08AF8601CC4B2182CF2DBB01C1C
:1016E000C1B23846FFF7D0FC00240AE005EB450103
:1016F00004EB41113031144A505C01F076F8601C63
:10170000C4B2182CF2DBF01CC1B23846FFF7BCFCA7
:1017100000240AE005EB450104EB411148310A4A77
:10172000505C01F062F8601CC4B2182CF2DB07F1C7
:101730001800C7B208F1010000F0FF08681CC5B22C
:10174000132DA6DBBDE8F08152360008704710B5B6
:101750000321142000F07DF810BD10B5142000F016
:10176000E1F9044604F0030018B90321142000F045
:10177000F9FA10BDF0B587B00546002708210846E4
:1017800000F067F800210D2000F0E6F980210E201E
:1017900000F05FF893208DF8080020208DF80900F4
:1017A00001A802AB022202A900900C2000F05FF811
:1017B00006468EB9002407E002A8005D285502A85D
:1017C000005D4740601CC4B2042CF5DB02A8005D3C
:1017D000B84201D06FF0010680210E2000F0C2FA5D
:1017E000304607B0F0BD2DE9F04107468846154662
:1017F0000421052000F02DF80021012000F0ACF9B3
:1018000080210A2000F0AEFA002405E0395D0920AD
:1018100000F0A2F9601CC4B24445F7DB03210120AB
:1018200000F09AF9FF2400BF052000F07BF906467E
:10183000601EC4B21CB106F004000028F4D02220BF
:1018400000F070F92870212000F06CF96870BDE894
:10185000F08170B505460C46284600F063F946B2A3
:1018600026EA0400C1B2284600F076F970BD2DE9E1
:10187000FE4F0646884691469A46DDF830B06FF036
:10188000010002900020019000900C2E06D00E2E38
:1018900009D1122001901020009005E077200190DE
:1018A0003020009000E000BF00BF019840F08001B0
:1018B000022000F051F980210420FFF7CAFF002127
:1018C000012000F049F980210A2000F04BFA0025A0
:1018D00006E018F80510092000F03EF9681C85B2F2
:1018E0004D45F6DB3146012000F036F90C2E03D1D0
:1018F00080210D2000F036FA46F2A81500BF042022
:1019000000F010F90446681E85B235B104F00100FC
:1019100018B9009820400028F1D080210D20FFF751
:1019200098FF002D39D0062000F0FCF800F01B00D5
:1019300078BB002002900198204000F0010010B117
:101940004FF0FF3002900C2E27D10A2000F0EAF869
:1019500004460C2000F0E6F800F007072FB1601EE7
:1019600007EBC000ABF8000002E0E000ABF80000BD
:1019700004B90124122C00DD1224002506E0092000
:1019800000F0D0F80AF80500681C85B2A542F6DB25
:1019900003E0FFE76FF00100029080210C2000F0CF
:1019A000E1F90021012000F0D7F80298BDE8FE8F90
:1019B00008B501210C2000F041FA1020ADF800001C
:1019C00002208DF8020010208DF8030069461E48A1
:1019D000FEF7CEFF2020ADF8000002208DF80200B7
:1019E00010208DF8030069461748FEF7C1FF8020DC
:1019F000ADF8000002208DF8020010208DF80300E1
:101A000069461148FEF7B4FF4020ADF800000420FD
:101A10008DF8030069460C48FEF7AAFF0120ADF8D7
:101A2000000002208DF8020010208DF803006946A6
:101A30000648FEF79DFF00F0A9F8FFF788FE4CF27C
:101A4000503001F043F908BD00080140000C01408E
:101A50002DE9F04387B006460F46904699468DF82B
:101A600008608DF80970002406E018F8041002AA36
:101A7000A01C1154601CC4B2062CF6DB002407E045
:101A800019F8041002AA04F108001154601CC4B231
:101A9000062CF5DB01A802AB0C2202A900900E2057
:101AA000FFF7E5FE05462DB9082000F03BF800F0F1
:101AB000080008B96FF00105284607B0BDE8F083BB
:101AC0002DE9F04188B005460E46174630208DF8C6
:101AD0000C008DF80D500DF10E02022103A8FFF746
:101AE00082FE02A803AB042203A900900C20FFF79A
:101AF000BEFE8046B8F1000F0DD1BDF80800902859
:101B000009D1002404E003A8005D3055601CC4B274
:101B1000BC42F8DB01E06FF00108404608B0BDE8C8
:101B2000F081000070B50446002510210948FEF739
:101B3000B3FF7E2101EA440141F0800000F080F80B
:101B4000002000F07DF8054610210248FEF7A6FFB0
:101B5000284670BD0008014070B504460D461021AE
:101B60000948FEF799FF7E2101EA440000F068F879
:101B7000284600F065F810210348FEF78FFF41F278
:101B8000883001F0A3F870BD0008014010B50121B4
:101B90002948FEF783FF42F2107001F097F8012107
:101BA0002548FEF779FF42F2107001F08FF801210D
:101BB0002148FEF773FF42F2107001F087F80F2101
:101BC0000120FFF7C9FF00BF0120FFF7ABFF00F0C6
:101BD00010000028F8D1194801F078F83D211120B3
:101BE000FFF7BAFF41F2883001F070F81E212D2076
:101BF000FFF7B2FF41F2883001F068F800212C2095
:101C0000FFF7AAFF41F2883001F060F88D212A2009
:101C1000FFF7A2FF41F2883001F058F83E212B2057
:101C2000FFF79AFF41F2883001F050F8402115206B
:101C3000FFF792FF002010BD000C0140400D030093
:101C400070B50446002500BF1EE004F0800020B1FE
:101C500080210F48FEF722FF03E080210C48FEF7A9
:101C60001BFF6006040E20210948FEF717FF4021E4
:101C70000748FEF708FF08B144F00104202104489A
:101C8000FEF70AFF681CC5B2082DDEDB204670BDDA
:101C90000008014070B588B005460C46082108468A
:101CA000FFF7D7FD07210D20FFF756FF0321142072
:101CB00000F058F88DF80C5002A803AB012203A9DC
:101CC00000900C20FFF7D3FD064656B9BDF808007A
:101CD000102806D19DF80C0020709DF80D00607052
:101CE00001E06FF00106304608B070BDF0B587B076
:101CF000054693208DF8080070208DF8090000201B
:101D00008DF80E0000240BE0295D02AAA01C1154DE
:101D10009DF80E00295D48408DF80E00601CC4B28D
:101D2000042CF1DB0DF10F02072102A8FFF75BFD88
:101D300008210846FFF78DFD01A802AB092202A980
:101D400000900C20FFF793FD07463FB9BDF8040053
:101D5000182803D19DF8080046B200E00026F0B232
:101D600007B0F0BD70B505460C462846FFF7DAFE11
:101D700046B246EA0400C1B22846FFF7EDFE70BD48
:101D8000F0B587B006460F46A0208DF808008DF804
:101D900009600DF10A02022102A8FFF724FD01A843
:101DA00002AB042202A900900C20FFF760FD05465B
:101DB0004DB9BDF80400042805D19DF8080000F0D5
:101DC0000F000A2801D06FF001051DBB002404E0BC
:101DD000385D02A90855601CC4B2102CF8DB06AAB5
:101DE000102102A8FFF7FFFC01A802AB122202A9F2
:101DF00000900C20FFF73BFD05464DB9BDF80400EF
:101E0000042805D19DF8080000F00F000A2801D031
:101E10006FF00105284607B0F0BD000029B1064A61
:101E2000D2690243044BDA6104E0034AD269824377
:101E3000014BDA61704700000010024029B1064AE8
:101E400092690243044B9A6104E0034A9269824317
:101E5000014B9A61704700000010024030B500212C
:101E60000022002400232D4D6D6805F00C0121B1E6
:101E7000042905D0082923D105E0294D056022E079
:101E8000274D05601FE0254D6D6805F47012234D48
:101E90006D6805F48034022505EB92421CB9214D92
:101EA000554305600BE01D4D6D6805F400351DB10F
:101EB0001C4D5543056002E0194D5543056002E095
:101EC000174D056000BF00BF144D6D6805F0F001AF
:101ED0000909154D6B5C0568DD4045600F4D6D6867
:101EE00005F4E061090A104D6B5C4568DD408560D2
:101EF0000A4D6D6805F46051C90A0B4D6B5C45686D
:101F0000DD40C560054D6D6805F44041890B074D06
:101F10006B5CC568B5FBF3F5056130BD0010024090
:101F200000127A0000093D0000000020100000208F
:101F3000704710B500F002F810BD00000CB500208D
:101F4000019000903348006840F4803031490860C7
:101F500000BF3048006800F4003000900198401C39
:101F60000190009818B90198B0F5A06FF1D12948F7
:101F7000006800F4003010B10120009001E0002062
:101F800000900098012843D12348006840F01000D9
:101F9000214908600846006820F0030008600846F0
:101FA000006840F0020008601A484068194948601B
:101FB0000846406848600846406840F480604860D1
:101FC0000846406820F47C1048600846406840F4A9
:101FD000E81048600846006840F08070086000BF64
:101FE0000C48006800F000700028F9D009484068EB
:101FF00020F00300074948600846406840F00200AE
:10200000486000BF0348406800F00C000828F9D180
:102010000CBD00000010024000200240704700008C
:1020200010B51348006840F00100114908600846E7
:102030004068104908400E494860084600680E494B
:1020400008400B4908600846006820F480200860BA
:102050000846406820F4FE0048604FF41F00886086
:10206000FFF767FF4FF000600449086010BD0000F3
:10207000001002400000FFF8FFFFF6FE08ED00E050
:1020800008B501210420FFF7D9FE18208DF80300C0
:102090004FF40060ADF8000003208DF8020069469F
:1020A0000148FEF765FC08BD0008014010B5FFF7C8
:1020B000E7FF00F001F810BD00B587B00121C802AC
:1020C000FFF7BCFE44F61F60ADF814004720ADF8E2
:1020D00010000020ADF812008DF81800ADF81600C1
:1020E00004A9124800F020F96020ADF8000000209B
:1020F000ADF806000120ADF802000220ADF808009E
:1021000069460A4800F0C2F80821084800F0FCF8C7
:102110000121064800F073F80121044800F081F81D
:102120000121024800F089F807B000BD002C0140F1
:102130000EB501211020FFF771FE41F61F40ADF8EA
:10214000000042F20F70ADF804006946084800F044
:10215000EBF80121064800F05EF801221146044820
:1021600000F08BF80121024800F05BF80EBD000082
:102170000010004010B50121114800F06DF8012851
:102180001DD110480078401C0E49087008460078A0
:102190003C2805D108464078401C48700020087053
:1021A00008484078182806D106488078401C054920
:1021B0008870002048700121014800F02FF810BD00
:1021C000001000401400002010B500F003F8FFF7E5
:1021D000AFFF10BD08B54FF4E060FEF7CDFE36202E
:1021E0008DF8000000208DF8010003208DF802001A
:1021F00001208DF803006846FEF786FE08BD21B178
:10220000028842F08002028004E002884FF67F7369
:102210001A4002807047CA4302827047CA43028252
:10222000704721B1028842F00102028004E0028876
:102230004FF6FE731A400280704731B1B0F8442067
:1022400042F40042A0F8442005E0B0F84420C2F374
:102250000E02A0F84420704730B50246002000234B
:102260000024158A05EA0103958905EA010413B1E2
:102270000CB1012000E0002030BD1AB183890B436E
:10228000838102E083898B438381704770B500228C
:1022900000230024058C4EF6FF7635400584038C20
:1022A0008488828B48F6FF752A404FF6FF452A4006
:1022B0000D884FF6FF7606EA05252A434DF6FF7591
:1022C0002B400D8906EA05352B434D8806EA053576
:1022D0002B430B4DA84202D00A4DA84208D14BF621
:1022E000FF752C408D894FF6FF7606EA85152C4345
:1022F00084808283CD88A0F84050038470BD0000A4
:10230000002C0140003401400A460021818B4FF22D
:10231000FF7319404FF6FF7303EA022319438183C9
:102320007047A0F840107047002202881D4B984269
:102330000ED01D4B98420BD0B0F1804F08D01B4BF4
:10234000984205D01A4B984202D01A4B984204D1B9
:102350004FF68F731A404B881A43174B984207D099
:10236000164B984204D04FF6FF431A40CB881A43CD
:1023700002808B8883850B8803850A4B98420BD09B
:10238000094B984208D00E4B984205D00D4B98420D
:1023900002D00D4B984201D10B7A03860123838230
:1023A00070470000002C0140003401400004004050
:1023B00000080040000C00400010004000140040E5
:1023C00000400140004401400048014010B586B083
:1023D000044601210420FFF731FD01218803FFF7A6
:1023E0002DFD18208DF817004FF40070ADF8140083
:1023F00003208DF8160005A91D48FEF7B9FA042040
:102400008DF817000002ADF8140005A91848FEF772
:10241000AFFA01940020ADF80800ADF80A00ADF85D
:102420000C000C20ADF80E000020ADF8100001A942
:10243000104800F0D9F84FF4A060FEF79DFD25206C
:102440008DF8000001208DF801008DF802008DF854
:1024500003006846FEF758FD012240F22551054869
:1024600000F09DF80121034800F056F806B010BDB9
:10247000000801400038014010B540F225512048C5
:1024800000F063F8D8B11E4800F01AF9C4B21D4834
:10249000B0F80004C0F30E0040F2FF3188420EDABB
:1024A0001849B1F80014C1F30E00411C154AB2F8E6
:1024B000002461F30E021349A1F800240C5440F2E9
:1024C00024410F4800F041F8012817D10D48B0F819
:1024D000000420F4004000F500400A49A1F800047F
:1024E000074800F0EDF8C4B207A10648FDF74EFE1C
:1024F00008B1012000E000200649087010BD00006E
:102500000048004024000020434C4F5345440D0A2E
:10251000000000001800002021B1828942F400521E
:10252000828104E082894DF6FF731A4082817047F0
:1025300002460020B1F5007F00D100BF13880B4098
:102540000BB1012000E00020704770B50246002466
:1025500000230025002040F66A16B14200D100BFDA
:10256000C1F3421501F01F03012606FA03F3012D02
:1025700002D19689334006E0022D02D1168A3340FB
:1025800001E0968A33400C12012606FA04F41688FC
:10259000344013B10CB1012000E0002070BDF0B553
:1025A0000346002400260025002040F66A17B942A1
:1025B00000D100BF1846C1F3421401F01F060127E5
:1025C00007FA06F5012C01D10C3004E0022C01D1F0
:1025D000103000E014301AB107682F43076002E0A2
:1025E0000768AF430760F0BD2DE9F04786B00546A8
:1025F0000E460024A24600BFA1460027B08900B1C4
:1026000000BF2F462C8A4CF6FF700440F08804432C
:102610002C82AC894EF6F3100440B088318908430F
:10262000718908430443AC81AC8A4FF6FF400440F3
:10263000B0890443AC8201A8FFF710FC1F48874211
:1026400002D1DDF810A001E0DDF80CA0A88900F4AB
:10265000004040B10AEBCA0000EB0A1031684900A3
:10266000B0FBF1F807E00AEBCA0000EB0A10316892
:102670008900B0FBF1F86420B8FBF0F004012009F8
:10268000642101FB1089A88900F4004040B1322088
:1026900000EBC900B0FBF1F000F00700044308E0D4
:1026A000322000EB09106421B0FBF1F000F00F00C4
:1026B00004432C8106B0BDE8F087000000380140DB
:1026C00001468888C0F308007047C1F30802828081
:1026D00070470FB470B586B006460CA8019073E041
:1026E0000B9800785C281CD10B98401C0B9000784C
:1026F0006E2809D072280FD10D213046FFF7E5FF73
:102700000B98401C0B900BE00A213046FFF7DDFFD1
:102710000B98401C0B9003E00B98401C0B9000BFE3
:102720004BE00B980078252840D10B98401C0B906B
:102730000078642818D0732833D1019810C801900C
:102740000BE021783046FFF7C0FF00BF8021304604
:10275000FFF7EEFE0028F9D0641C20780028F0D1A5
:102760000B98401C0B9020E0019820C801900A2291
:1027700002A9284600F0FCFA02AC0BE021783046B2
:10278000FFF7A3FF00BF80213046FFF7D1FE0028EE
:10279000F9D0641C20780028F0D10B98401C0B90D5
:1027A00003E00B98401C0B9000BF06E00B9810F85C
:1027B000011B0B903046FFF788FF00BF8021304699
:1027C000FFF7B6FE0028F9D00B980078002887D1D3
:1027D00006B070BC5DF814FB00BFFEE710B5044600
:1027E00021460020FEF772FA10BD10B504462146BE
:1027F0004020FEF76BFA10BD0FB4054B10B503A9CE
:10280000044A029800F02CF810BC5DF814FB00009C
:102810004D2D0008200000200FB4084B10B504A96E
:1028200002AA039800F01CF8044602A9002000F058
:1028300048FA204610BC5DF814FB0000C32C0008C9
:1028400002E008C8121F08C1002AFAD17047704779
:10285000002001E001C1121F002AFBD170470000D7
:102860002DE9FF4F8DB00F460546002606E02528CE
:102870000BD0DDE90F1290476D1C761C28780028DC
:10288000F5D111B03046BDE8F08F0024A246A14634
:102890000122EC4900E0044315F8013F203B02FA15
:1028A00003F00842F7D128782A2810D06FF02F02C1
:1028B0002878A0F13001092914D80AEB8A0102EB2B
:1028C000410144F0020400EB010A6D1CF0E701CF66
:1028D0005FEA000A03D544F40054CAF1000A44F048
:1028E00002046D1C28782E2817D115F8010F44F02A
:1028F00004042A280ED06FF02F022878A0F13001AE
:1029000009290AD809EB890102EB410100EB010911
:102910006D1CF2E757F8049B6D1C28786C280FD0CB
:1029200006DC4C2817D068280DD06A2814D104E0A2
:10293000742810D07A280FD10DE044F400140AE076
:1029400044F4801401E044F440146978814202D1D7
:1029500004F580146D1C6D1C2A786E2A1FD00CDCC7
:10296000632A31D004DC002A8BD0582A11D1A3E08D
:10297000642A68D0692A0CD165E0732A2ED004DC61
:102980006F2A73D0702A04D19BE0752A6FD0782A01
:102990006ED01046DDE90F129047761C50E1C4F36B
:1029A0000250022806D0032809D0042801CF09D0FC
:1029B000066045E101CFF117C0E9006140E101CFB8
:1029C00006803DE106703BE117F8040B8DF800002E
:1029D00000208DF80100EB46012003E057F804BB0E
:1029E0004FF0FF3061074FF0000102D40DE008F115
:1029F0000101884649450FDA8045F8DB1BF80810CD
:102A00000029F4D108E008F1010188468142FADB8F
:102A10001BF808100029F6D1DDE90F23AAEB080006
:102A20008146214600F036F9304400EB080604E008
:102A3000DDE90F121BF8010B9047B8F10108F7D23E
:102A400021464846F7E00A21C4F302534FF0000B39
:102A50000891022B04D001CFC117032B09D00AE043
:102A6000FF1D27F00707F7E8020108E032E01FE04A
:102A700020E000B2C117042B01D140B2C117031EE0
:102A800071F1000307DA4FF0000CD0EB0C006CEB97
:102A900001012D2302E0230504D52B238DF82430DA
:102AA000012303E0E30701D02023F7E7984658E02D
:102AB0000A2110E010210EE010204FF0000B0890CA
:102AC0000CE010214FF0000B44F004044FF0080913
:102AD000089103E008214FF0000B0891C4F3025362
:102AE000022B04D001CF0021032B06D006E0FF1DEE
:102AF00027F00707F7E8020103E080B2042B00D1BA
:102B0000C0B24FF0000823072BD5702A07D0DDF89C
:102B100020C08CF0100C5CEA0B0C05D00EE04023BA
:102B20008DF82430012308E050EA010306D0302359
:102B30008DF824308DF8252002239846DDF820C03A
:102B40008CF0080C5CEA0B0C0BD150EA010301D1AC
:102B5000630706D530238DF824304FF00108A9F122
:102B60000109582A04D038A20B9208AA0A920BE055
:102B70003AA2F9E75B46089AFDF71AFB0B9B9B5CB0
:102B80000A9A521E0A92137050EA0102F2D10A9870
:102B9000ADEB000000F1200B600702D524F4803477
:102BA00001E04FF00109D94502DDA9EB0B0000E07F
:102BB000002000EB0B0141440890AAEB010AE0035E
:102BC00006D4DDE90F232146504600F063F80644A1
:102BD0004FF0000908E009A911F80900DDE90F121A
:102BE000904709F10109761CC145F4DBE0030CD5DF
:102BF000DDE90F232146504600F04CF8064404E07E
:102C0000DDE90F1230209047761C0899481E089085
:102C10000029F5DC08E00A980A990078491C0A9115
:102C2000DDE90F129047761CBBF10001ABF1010BFF
:102C3000F1DC21465046DDE90F2300F019F8064487
:102C40006D1C1BE60928010030313233343536372C
:102C500038396162636465660000000030313233E8
:102C60003435363738394142434445460000000088
:102C70002DE9F041044600251E461746880404D479
:102C800005E039462020B0476D1C641EF9D5284662
:102C9000BDE8F0812DE9F041044600251E4690462E
:102CA000C80301D5302700E02027880404D505E0BB
:102CB00041463846B0476D1C641EF9D52846BDE82C
:102CC000F0810A68531C0B6010707047F0B5044621
:102CD0004822B2F1807F00D31DE022F07F40401EE9
:102CE0004FF0E023586158170F23002807DA1D071B
:102CF0002F0E144D00F00F06361FAF5503E01D07D1
:102D00002E0E114D2E5400BF00204FF0E02398618D
:102D10000720186100BF002108E000BF4FF0E0204D
:102D2000006900F480300028F8D0491CA142F4D397
:102D30004FF0E020006920F001004FF0E022106128
:102D4000F0BD000018ED00E000E400E070B50446BE
:102D50000D46E1B20548FFF7B8FC00BF80210348EB
:102D6000FFF7E6FB0028F9D0204670BD003801408F
:102D7000F0B503460D461646002729460A2E03D015
:102D8000002008702846F0BD33B9302001F8010B4F
:102D9000002008702846F6E7002B03DA2D2001F802
:102DA000010B5B4242F210720DE093FBF2F404B9A6
:102DB00037B104F1300001F8010B04FB1233012795
:102DC0000A2092FBF0F2002AEFDC0020087028466F
:102DD000D9E70000B2B00027282128A8FDF7CBF9D9
:102DE000B946BB46FEA000682790C8202690002563
:102DF0000020239024902190229020900A261E905B
:102E00001D900024642104A8FDF7B5F94FF4E130CA
:102E1000FFF7DCFAFDF768FEFFF748F9FEF71AF84E
:102E2000FEF7C6FDFEF7D4F8FFF7CEF9FDF794FFE5
:102E3000FDF7D2FFFDF736FBFEF7A8F8FEF7A6FE7A
:102E40004120FEF733F8E7A0FFF7D6FC4FF480717E
:102E5000EB48FDF723FEFDF711FA0020FDF7B4FB68
:102E600000BFE8A1EAA0FDF72FFB0028F9D0002061
:102E7000FDF788FA00BF0523E6A2E8A10020FDF7D0
:102E800043FB0028F7D000BFFDF7A0FC0028FBD0D3
:102E9000E6A0FFF7B1FCEBA0FFF7AEFC5CE3EC486B
:102EA000FFF714FF3246EBA120A8FFF7B5FC002185
:102EB0000846FEF733FB20AA04213220FEF7C2FAAF
:102EC00025A95220FEF7E6FEC0B25FEA000A05D04F
:102ED00025A95220FEF7DEFE00F0FF0ABAF1000F2E
:102EE00074D125A8FEF746FC0028F9D125A8FEF7E5
:102EF000FDFE25A800F0A0FB07463946D6A0FFF747
:102F00007BFC002510E025ABDB4A14216020FEF796
:102F10009FFD00F0FF0ABAF1000F00D106E0D7A034
:102F2000FFF76AFC681CC5B20A2DECDB00BF002568
:102F3000DFE228A850F82500B8427DD1D4480078B7
:102F4000002842D1012221A91420FEF7B9FD9DF8E5
:102F500084B09DF89C0058456FD103221FA915200D
:102F6000FEF7AEFD02221EA91620FEF7A9FD9DF870
:102F700078009DF8791040EA01201D90C5484078FE
:102F80009DF87D10401AC34989789DF87E20891AE2
:102F900001EB410100EBC10000EB40004FF6FF7177
:102FA00001EA40040CB9A01D84B2BDF8740084424B
:102FB0000DDDB9A0FFF720FCFDF7E8FF0021084672
:102FC000FEF728F9B948FFF781FEDAE195E223A977
:102FD0001420FEF7D5FEBDF87400001B80B21D90D2
:102FE0001EA91DA800F022FB1EA91620FEF7C8FE90
:102FF000AFA0FFF701FCA748037842788178B0A022
:10300000FFF7FAFB2146B9A0FFF7F6FBBDF87410F5
:10301000BBA0FFF7F1FB22468EA120A8FFF7FCFB27
:10302000FDF7B4FF00210846FEF75AF920AA042153
:103030002820FEF707FA01E0EFE155E0B448FFF77A
:1030400045FEBDF8742083A120A8FFF7E5FBFDF73E
:103050009DFF00210846FEF72BF820AA0421282016
:10306000FEF7F0F9AA48FFF731FEAAA120A8FFF762
:10307000D3FBFDF78BFF20AA02211420FEF7E2F913
:10308000BDF874208348007882494978CDE902422E
:10309000CDE900107F4883783A46A04904A8FFF79D
:1030A000BBFB0523002204A90120FDF7DDFA44F64D
:1030B000C8319B48FFF735F920219A48FDF7ECFC11
:1030C0009348FFF703FE44F2B4619548FFF729F9EE
:1030D00020219448FDF7E2FC701CC6B20A2E00DDE8
:1030E0000A26FDF753FF4CE127A91420FEF748FEFE
:1030F00042F21070FFF7EAFD664800788DF87C0018
:10310000644840788DF87D00624880788DF87E00B4
:103110001FA91520FEF734FE02221EA91620FEF775
:10312000CFFC9DF878009DF8791040EA01201D90B1
:10313000BDF874209DF87C009DF87D10CDE901025A
:1031400000919DF87E303A46774904A8FFF764FB6A
:103150000523002204A90120FDF786FA73A0FFF7DA
:103160004BFB4C4803784278817874A0FFF744FB0E
:10317000BDF8741062A0FFF73FFBBDF8742035A1C5
:1031800020A8FFF749FBFDF701FF00210846FDF7E6
:103190008FFF20AA04212820FEF754F95C48FFF78E
:1031A00095FD71A120A8FFF737FBFDF7EFFE20AAE0
:1031B00002211420FEF746F944F6C8315848FFF7BB
:1031C000B0F820215748FDF767FC5148FFF77EFD16
:1031D00044F2B4615248FFF7A4F820215148C9E0F5
:1031E0002E0000000D0AD5FDD4DAC5E4D6C3204573
:1031F000535038323636202E2E2E2E2E2E0D0A000B
:10320000000C0140373033373033373033000000A3
:1032100037303300383830300000000031302E3184
:1032200030312E31352E3236000000000D0AC5E453
:10323000D6C3204553503832363620CDEAB1CF0DB3
:103240000A0000000D0A2074657374200D0A000046
:1032500020A10700256400000D0AB5B1C7B0D1A1B7
:10326000D6D0BFA8D0F2C1D0BAC5CEAAA3BA093071
:1032700078253038580D0A0019000020A1B7A1B7F1
:10328000A1B7C3DCD4BFBCECD1E9B4EDCEF30000F0
:1032900017000020140000200D0AA1B7A1B7A1B7A4
:1032A000D3E0B6EEB2BBD7E30000000040420F000F
:1032B0000D0AA1B7A1B7A1B7B3F6BFE200000000A5
:1032C0000D0AB3F6BFE2CAB1BCE4B1EABCC7A3BA07
:1032D0002564206461792C256420686F75722C2523
:1032E00064206D696E757465730000000D0AB1BECF
:1032F000B4CED7DCBCC6B7D1A3BA256400000000A9
:103300000D0ABFA8C4DAD3E0B6EEA3BA2564000064
:1033100060E316006279652E00000000444F00084B
:10332000002C014000180140AC4F00080D0AA1B765
:10333000A1B7A1B7C8EBBFE2000000000D0AC8EBBF
:10334000BFE2CAB1BCE4B1EABCC7A3BA2564206439
:1033500061792C256420686F75722C2564206D6955
:103360006E7574657300000077656C636F6D652E14
:1033700000000000FDF792FB0EB1701EC6B2FDF713
:1033800005FE76480078012846D102221EA91620A3
:10339000FEF796FB9DF878009DF8791040EA012031
:1033A0001D90BDF874102698084480B21D901EA987
:1033B0001DA800F03BF91EA91620FEF7E1FCBDF8A0
:1033C00074303A4666A104A8FFF726FA05230022C6
:1033D00004A90120FDF748F96FA0FFF70DFABDF829
:1033E0007410AFF2E400FFF707FABDF87420AFF2F3
:1033F0009C1120A8FFF710FAFDF7C8FD0021084630
:10340000FDF756FE20AA04212820FEF71BF8664887
:10341000FFF75CFCFDF7BAFD6EE0092D67D14F4860
:103420000078012863D128A840F8297023A9142026
:10343000FEF7A6FC23A91520FEF7A2FC23A916205F
:10344000FEF79EFC02221EA91620FEF739FB9DF80E
:1034500078009DF8791040EA01201D90BDF87400B5
:10346000643080B21D901EA91DA800F0DFF81EA9CF
:103470001620FEF785FCBDF874303A464BA104A82F
:10348000FFF7CAF90523002204A90120FDF7ECF893
:1034900052A0FFF7B1F9BDF87410AFF29C10FFF71E
:1034A000ABF9FDF773FD00210846FEF7E9F83E4849
:1034B000FFF70CFCFDF76AFDBDF87420AFF26C213C
:1034C00020A8FFF7A9F9FDF761FD00210846FDF7E7
:1034D000EFFD20AA04212820FDF7B4FF3248FFF7B2
:1034E000F5FBFDF753FD09F1010000F0FF09681C31
:1034F000C5B20A2DFFF61DAD00BF3C48007800287C
:103500002AD0FCF75FFF00BFFCF78EFF8046B8F1C2
:10351000000FF9D0B8F1040F19D135A0FFF76CF9FD
:1035200000BFAFF22031AFF21830FCF7CDFF00281A
:10353000F7D000BF0523AFF22432AFF220310020D4
:10354000FCF7E2FF0028F5D031A0FFF755F900BFE6
:10355000FDF73CF90028FBD0A1E400001700002093
:10356000A1B7A1B7A1B7B3E4D6B52D2DBFA8D0F2AE
:10357000C1D0BAC53A3078253038582C0909B3E49F
:10358000D6B5323030D4AA2CBFA8C4DAD3E0B6EE18
:10359000A3BA2564090900000D0AA1B7A1B7A1B714
:1035A000B3E4D6B50000000060E31600D0C2BFA8A7
:1035B000D7A2B2E1A1B7A1B7A1B7BFA8D0F2C1D03D
:1035C000BAC53A3078253038582C0909BFA8C4DA72
:1035D000D3E0B6EEA3BA2564090900000D0AD0C2F3
:1035E000BFA8D7A2B2E1B3C9B9A600001800002055
:1035F0000D0AD5FDD4DAD6D8C1ACC8C8B5E3BACD6A
:10360000B7FECEF1C6F7202E2E2E2E2E2E0D0A003E
:103610000D0AD6D8C1ACC8C8B5E3BACDB7FECEF155
:10362000C6F7B3C9B9A60D0A0000000002780A70F7
:10363000028812124A7070470146002008784A78C2
:1036400042EA00208A7842EA0020CA7842EA002052
:1036500070470000C0C0C0C0C0C0C0E0FCDCC0C03B
:10366000C0C0C0C0C0C0C00000000000018181E136
:10367000F19D8F838181FDFD8181818181810100A7
:10368000000000C0C0C0C3C3C3C3C3C3C3C3FFFFE4
:10369000C3C3C3C3C3C3C0C0C00000010101010153
:1036A0000101010101017F7F01010101010101010E
:1036B00001000000000080F8F80800000000001879
:1036C000FC7040000000000000000080F07CFFFF64
:1036D00000000003E3E30303030303E3F3630303D3
:1036E000000000010100FFFF00000000011FFEE0DC
:1036F0000000F0FF0F0000000000000000007F7FCE
:1037000000001C1C1C1C1D1D1C1E1F1D1C1C1C1C29
:103710001C000000003030303030F0301818181025
:10372000000000C00000FCFC00000000C3C3F3F375
:103730000303FF0303F3C3C3630000FF0000FFFFA5
:10374000000000181C0C1F9FE070FF70E0CF9C1859
:103750000E04007F0000FFFF000000081C0E07039E
:1037600001007F000001070F0000000030303F1F04
:103770000000000000000000000080E0783C7CE0D9
:10378000C0800000000000000000000060F0703801
:103790001E6F636160E0E0606163670E1C1C383877
:1037A00008000000001818181898181818FFFF18BB
:1037B0001898D898181800000000000010381C0E47
:1037C00007030170707F3F00000003071E3C1800D4
:1037D0000000000000000000000438F0000000803D
:1037E000601C080000000000000000000000000055
:1037F000FE02020302020203020202FE06000000B1
:10380000000000000000E00007E242020A32E2424B
:103810000202022747C08000000000000C070000E1
:10382000001F38303030303030303F18000007078C
:103830000000000000000830E00000000000000070
:10384000F8F800000000000000000020202020F018
:103850002000202020202020FFFF202020202030BA
:1038600020000000000000FF000080400000000079
:10387000FFFF000000000000000000000000001F2B
:103880001C060100000000007F3F00000000000057
:103890000000000000202020202020FC28202020E4
:1038A000FC20202020E000000000000000101F127B
:1038B00092D2721F12121212FF1212129293F03849
:1038C0001000000004020201FF04040404FC1404BC
:1038D000050404FF04010000000000000040402037
:1038E0002130180C0701000206040E193870000080
:1038F00000000000000000202020202020202020A8
:103900002020203030200000000000002020202057
:10391000202020E020202020E020202020303820FF
:10392000000000000000000000C0FE0F00000000CA
:10393000FF000000000000E0000000404020100CEC
:1039400006030000000000001F1830303030181F40
:10395000080000000000000000000080F03C38C0BB
:103960000000000000000000000000000080C060B7
:10397000301C060300F8F00003061C3870E0C0C0DD
:1039800000000002010000000000000000FFFF0036
:103990000000000000000100000000000000000026
:1039A00000000000007F3F00000000000000000059
:1039B000000000000000000000000000FCFC9C80F3
:1039C0008080808080808000000000C0C0C0C0C0B7
:1039D000C0C0C0C0FFFFC1C1C1C1C1C1C1C1C1C060
:1039E000C00000000000000000000000FFFF001801
:1039F000183870E0C08000000000000000000000E7
:103A0000000000007F7F780000000000010100003E
:103A100000000000008080808080808080FCFC802E
:103A200080808080808080800000000000FFFF0197
:103A300001010101E1FFDF810101010101FFFF033C
:103A40000000000000FFFF2030783C0F0701010359
:103A5000070E1C1810FFFF0000000000407F7F00D1
:103A6000000000000000000000001070303F3F0028
:103A70000000000000000000000080E0783C7CE0D6
:103A8000C0800000000000000000000060F07038FE
:103A90001E6F636160E0E0606163670E1C1C383874
:103AA00008000000001818181898181818FFFF18B8
:103AB0001898D898181800000000000010381C0E44
:103AC00007030170707F3F00000003071E3C1800D1
:103AD00000000000C0C0C0C0F8F8C0C0C0C00030C6
:103AE000303030F03030303030000084E770BDDEF0
:103AF0009A98F8781B0300FCFC0CCFCF0C0CFC0C44
:103B00000000002071F8FC6F676367EE1C1800FF6F
:103B1000FF00FF7F0000FFC000000000007F7F0C5F
:103B20000C0C0C3F402070381C0F0300060E3C3874
:103B300010000000383838383838383838B8F87855
:103B400038383838383838380000000000000000B5
:103B500080C0E078FEFF01002070E0C0800000001F
:103B60000000001070381C0E07010000FFFF00006D
:103B700000000003071E3C180000000000000000C9
:103B8000000000007F7F0000000000000000000037
:103B900000000000000000F8F8181818181818188D
:103BA000181818F8F8000000000000000000001FBE
:103BB0001F18181818F8F8181818181F1F000000F8
:103BC000000000000000C0FEBE00000000FFFF1863
:103BD000181818181818180000000000307C1F036F
:103BE00003070E0C181F3F3830303030303030387B
:103BF00008000000003870E0C00000000000081C51
:103C00007870000000000000000000003070E0C08C
:103C10000000030303030303FFFF03030303030382
:103C200000000000000080F1700000060606060695
:103C3000FFFF06060606060000000000387E0F01A2
:103C400000303030303030303F3F30303030303086
:103C5000300000000000F8F8383838F8F80000F8B4
:103C6000F8383838F8F80000000000808080FFFF46
:103C7000808080FFFF8080FFFF808080FFFF80804A
:103C8000800000010181FF3F010101FFFF0101FFF1
:103C9000FF010101FFFF010101000000783F070063
:103CA0000030703F1F207C1F010010703F3F00005C
:103CB000000000000000000000000000000000FC08
:103CC000FC00001C38F060000000000000FFFFC393
:103CD000C3C3C3C3C303033FFF03030383E36303FC
:103CE0000000000000FFFF01010101FFFF000000D4
:103CF0001FFFF03C0F030000000000307E1F030098
:103D0000020E062773381C0E0703070F3C78707FDE
:103D10000E000000C0C0C0C0C0C0C0C00000000095
:103D2000FCF800000000000000000000010101FF9D
:103D3000FF0101010E0E0E0EFFFF0E0E0E0EFEFE17
:103D400000000080808080FFFFC0C060600080F8BD
:103D50007F0300000000FF3F00000001030301019A
:103D600000002070381E070100001030383F1F008F
:103D70000000000000000000000000000000000043
:103D80000000000000000000000000000000000033
:103D90000000000000000000000000000000000023
:103DA00000000000000000F0F00000000000000033
:103DB000000000FFFF000000000000000000001FE6
:103DC0000F000000000000000000070707000000CF
:103DD0000000000000E0E00000E0E0000000000063
:103DE000000F0F00000F070000000000000000009F
:103DF00000000000000000000000000000000000C3
:103E0000000000000000C0000000C0C00000303012
:103E100030FE7F303030FF3330003838F8FF38382C
:103E200038FF3F3838000000070100000407000099
:103E30000000000000C0C0F8C0C08000000000000A
:103E40007FFFC0FF80010F0F000000F0F08001FF36
:103E50000307FEFC0000000003070E7F0E060701AB
:103E600000000080C0C0800000008040000000FF13
:103E70008080FF00E01C03000000000001C1380743
:103E800060FE0306FC0000000E01000000070C06A7
:103E9000030000000080C0C0C080000000000000DF
:103EA0001FFFC1C0713F0600000000FCFE03071F9A
:103EB00078F0E0FC1C00000307060E0E0607030363
:103EC000070000000000C0C000000000000000006B
:103ED00000000F0F000000000000000000000000C4
:103EE00000000000000000000000000000000000D2
:103EF00000000000000000000080E07018000000DA
:103F000000000080FC070100000000000000000726
:103F1000FFC00000000000000000000000030E3899
:103F20003000003870C000000000000000000000F9
:103F300000011FF800000000000000000000E07F0A
:103F400000000000000000301C0F03000000000013
:103F500000000000000000C0C000000000000006DB
:103F60008EDCF8FFFFF8DC8E060000030301003F43
:103F70003F000103030000000000000000000000FB
:103F80000000000000000000000000000000808031
:103F9000808080FEFE80808080000101010101FFA1
:103FA000FF0101010100000000000000000000000E
:103FB0000000000000000000000000000000000001
:103FC00000000000000000000000000000000000F1
:103FD0000000000000000000661E0000000000005D
:103FE00000000000000000000000000000008080D1
:103FF000808080808080808080000101010101013B
:1040000001010101010000000000000000000000AB
:1040100000000000000000000000000000000000A0
:104020000000000000000000000000000000000090
:104030000000000000000000060600000000000074
:104040000000000000000000000000C06000000050
:1040500000000000C0380E010000000080E01C07D6
:10406000010000000000000E03000000000000003E
:10407000000000000080C0C0C0C08000000000FC44
:10408000FF070100000107FFF000007FFF80000034
:104090000000C0FF1F0000000107070E0E0703010C
:1040A0000000000000000080C000000000000000D0
:1040B0001C0E07FFFF00000000000000000000FFD2
:1040C000FF000000000000000000000707000000E3
:1040D0000000000080C0C0C0C0C0C00000000006DA
:1040E0000F0100000081FF7F0000000080C0F03859
:1040F0001E07010000000006070706060606060662
:10410000060000000080C0C0C0C0C0000000000465
:104110000F03008080C1FF3F000000C0C00000010D
:104120000103CFFE700000000307060E0E07070113
:10413000000000000000000000C0C00000000000FF
:1041400000C0F03C0FFFFF000000707C7F737070B8
:1041500070FFFF7070700000000000000007070093
:104160000000000080C0C0C0C0C0C0C0000000E0AF
:10417000FFCF606060E0C080000040C181000000AF
:104180000000C3FF3C00000107060E0E06070301F6
:104190000000000000000000C0C00000000000009F
:1041A000C0F0FCCFC3C0C080000000FEFF83000051
:1041B000000001FFFF0000000307060E0E060703C4
:1041C000010000C0C0C0C0C0C0C0C0C0C00000006E
:1041D0000000000080F03C0F010000000000E0FC47
:1041E0001F010000000000000004070300000000A1
:1041F0000000000080C0C0C0C0C080000000003EC1
:104200007FC1808080C1FF3F000000FCFF030301ED
:10421000010387FEF800000107070E0E0E060703D4
:104220000000000080C0C0C0C0C08000000030FF9F
:10423000CF0100000001FFFF38000001030706C6A0
:10424000FE3F0F0100000000000C0F0700000000FF
:10425000000000000000000000000000000000005E
:10426000000000E0E000000000000000000000008E
:104270000000000000000000000000060600000032
:10428000000000000000000000000000000000002E
:10429000000000E0E000000000000000000000005E
:1042A0000000000000000000000000760E0000008A
:1042B0000000000000000000000080C0400000007E
:1042C00080E030180C07030000000003070C1830D2
:1042D000E080000000000000000000000001030674
:1042E0000C00000000000000000000000000383852
:1042F0003838383838383838380018181818181836
:104300001818181818000000000000000000000035
:1043100000000060C08000000000000000000000FD
:104320000103060C1870C080000000000080C0600F
:1043300030180C070100000C06030100000000000B
:10434000000000000080C0C0C0C080000000001C51
:104350001F07010080C1FF3F000000000000001E99
:104360000F0100000000000000000007070000002F
:1043700000000000008040404040C0000000807C01
:1043800003C070180CF83C03FC000FF0003F6060A5
:10439000387F60301F000000030604080804060090
:1043A00000000000000000C0C0000000000000008D
:1043B00000E0FF0F1FFEE000000000C0FE3F1D1CDC
:1043C0001C1F7FFC8000040707000000000000079E
:1043D000070000C0C0C0C0C0C0C08000000000FF17
:1043E000FF80808080C1FF7F1C0000FFFF01010172
:1043F000010387FEFC000007070606060607070301
:10440000010000000080C0C0C0C0C080000000F8F3
:10441000FF0F01000000033F3E00007FFFC00000CF
:10442000000080F8F80000000103070E0E060703E5
:10443000000000C0C0C0C0C0C0800000000000FF7D
:10444000FF00000101031FFEF00000FFFF0000005D
:104450000080F0FF3F000007070606060703030081
:10446000000000C0C0C0C0C0C0C0C0C0000000FF8D
:10447000FF80808080808080000000FFFF010101BC
:1044800001010101000000070706060606060606F0
:10449000060000C0C0C0C0C0C0C0C0C0C00000FF97
:1044A000FF80808080808000000000FFFF03030306
:1044B00003030300000000070700000000000000E5
:1044C000000000000080C0C0C0C08000000000F8F4
:1044D000FF0701000001071F1800007FFFC0000058
:1044E000060686FEFE0000000107070E0E06030FFB
:1044F0000F0000C0C0000000000000C0C00000FFAE
:10450000FF808080808080FFFF0000FFFF010101AD
:10451000010101FFFF000007070000000000000785
:1045200007000000000000C0C00000000000000004
:10453000000000FFFF00000000000000000000FF7E
:10454000FF0000000000000000000007070000005E
:1045500000000000000000000000C0C0C00000001B
:10456000000000000000FFFFFF0000F8F8800000DE
:104570000000FFFF0F0000000307060E0E070701F3
:10458000000000C0C00000000000C0C0400000FFEC
:10459000FF80E0F8BC0F0301000000FFFF070107E8
:1045A0001FFCF08000000007070000000000030768
:1045B000060000C0C000000000000000000000FF76
:1045C000FF00000000000000000000FFFF000000EE
:1045D00000000000000000070706060606060606A3
:1045E000060000C0C0C000000000C0C0C00000FF46
:1045F000FFFFF80000FC7FFFFF0000FFFF007FFCD3
:10460000FE3F00FFFF00000707000007070000074C
:10461000070000C0C0800000000000C0C00000FF14
:10462000FF1FFCE0000000FFFF0000FFFF0000078D
:104630003FF8E0FFFF000007070000000001070748
:10464000070000000080C0C0C0C08000000000FC67
:10465000FF03010000010FFFFC0000FFFF800000CE
:104660000000C0FF7F0000000307060E0E070701D1
:10467000000000C0C0C0C0C0C0C08080000000FFFB
:10468000FF000000000183FFFE0000FFFF0606069A
:1046900006070303000000070700000000000000F9
:1046A000000000000080C0C0C0C08000000000FC0E
:1046B000FF03010000010FFFFC0000FFFF8000006E
:1046C00070F0C0FF7F0000000307060E0E070F0FFB
:1046D000000000C0C0C0C0C0C0C08000000000FF1B
:1046E000FF0000000181E7FF7C0000FFFF030303E0
:1046F0001F7FF18000000007070000000000030793
:10470000060000008080C0C0C0C080000000001E05
:104710007FF3C18080010F0F000000E0E000010185
:1047200003078FFEF80000010307060E0E060703BD
:10473000000000C0C0C0C0C0C0C0C0C0C0000000F9
:10474000000000FFFF00000000000000000000FF6C
:10475000FF0000000000000000000007070000004C
:10476000000000C0C0000000000000C0C00000FF4A
:10477000FF000000000000FFFF0000FFFF800000BE
:10478000000080FFFF0000000307060E0E0607036F
:10479000000040C0C0000000000000C0C000000FCA
:1047A000FFF8000000C0FE7F03000000011FFFE0D3
:1047B000F8FF0F00000000000000030F0F000000D2
:1047C0000000C0C0000000C0C00000C0C00003FF67
:1047D000F800FE3FFFF000FFFF00001FFFFC7F001E
:1047E00001FFF8FF010000000F0F000000070F0796
:1047F000000000C0C08000000000C0C040000000F9
:10480000031F7CE0F03E0F0100000000C0F83E07EF
:104810001F7CF08000000006070100000000030775
:10482000060000C0C0000000000000C0C000000181
:104830000F3EF8C0E0F83F0700000000000001FF55
:10484000FF0000000000000000000007070000005B
:10485000000000C0C0C0C0C0C0C0C0C0C0000000D8
:1048600000000080E07C1F0701000000E0F83E0F20
:1048700001000000000000070706060606060606FF
:1048800006000000000000F81818181818000000B2
:10489000000000FF0000000000000000000000FF1A
:1048A00000000000000000000000007F6060606009
:1048B00060000020E0000000000000000000000098
:1048C000011FF8C000000000000000000000000709
:1048D0007CE00000000000000000000000031F70EA
:1048E00000000018181818F8F80000000000000078
:1048F000000000FFFF00000000000000000000FFBB
:10490000FF000000000000606060607F7F0000002A
:10491000000000004070381C1C386040000000009F
:104920000000000000000000000000000000000087
:104930000000000000000000000000000000000077
:104940000000000000000000000000000000000067
:104950000000000000000000000000000000000057
:104960000000000000008080808080808080808047
:104970008080000000040C3C70C0000000000000BB
:104980000000000000000000000000000000000027
:104990000000000000000000000000000000000017
:1049A0000000000000000000000000000000000007
:1049B00080C0E06060E0C080000000E2F3331818BF
:1049C000181CFFFF0000000307060E0E0603070772
:1049D000000000C0C000000000000000000000FF58
:1049E000FFC0E06060E0C080000000FFFF810000C9
:1049F0000000E7FF380000070703060E0E06070158
:104A000000000000000000000000000000000000A6
:104A100080C0E06060E0C080000000FEFF01000098
:104A2000000083C3C00000000307060E0E06070344
:104A300000000000000000000000C0C000000000F6
:104A4000C0C0E06060C0FFFF000000FFFF01000089
:104A50000000FFFF0000000103070E0E0607070716
:104A60000000000000000000000000000000000046
:104A700080C0E06060E0C080000000FEFF0D0C0C14
:104A80000C0C8F8F8C0000000307060E0E06070328
:104A90000000000000000080C0C0C0C0C000006076
:104AA0006060FFFF61606060010000000000FFFFC8
:104AB00000000000000000000000070700000000E8
:104AC00000000000000000000000000000000000E6
:104AD00080C0E060E0C0C06060000080DF3F7060C8
:104AE000703F1F00000000387FC7C6C6C6C6C67E1E
:104AF000380000C0C000000000000000000000FFFF
:104B0000FF80C0606060E0C0000000FFFF070000A1
:104B1000000001FFFE000007070000000000000782
:104B200007000000000000C0C000000000000000FE
:104B3000000000E1E100000000000000000000FFB4
:104B4000FF00000000000000000000070700000058
:104B5000000000000000000000C0C00000000000D5
:104B60000000000000E1E100000000000000000083
:104B700000FFFF0000000000E0C0C0C0E07F1F0099
:104B8000000000C0C000000000000000000000FFA6
:104B9000FF00000080C0E020000000FFFF381C0E76
:104BA0003FF1C000000000070700000000000707F9
:104BB00004000000000000C0C00000000000000071
:104BC000000000FFFF00000000000000000000FFE8
:104BD000FF000000000000000000000707000000C8
:104BE0000000000000000000000000000000E0E005
:104BF00080C0E0E0C0C0E0E0C000FFFF010000FFB7
:104C0000FF000000FF00070700000007070000008A
:104C1000070000000000000000000000000000E0AD
:104C2000E080C0606060E0C0000000FFFF0700009F
:104C3000000001FFFE000007070000000000000761
:104C4000070000000000000000000000000000005D
:104C500080C0E06060E0C080000000FEFF01000056
:104C6000000083FFFE0000000307060E0E06070388
:104C7000000000000000000000000000000000E054
:104C8000E0C0C06060E0C080000000FFFF010000E5
:104C90000000E7FF380000FFFF03060E0E060703C3
:104CA0000000000000000000000000000000000004
:104CB00080C0E060E0C0E0E0000000FFFF01000015
:104CC0000000FFFF0000000103070E0E0E07FFFFAC
:104CD00000000000000000000000000000000000D4
:104CE000E0E00080C0E0E00000000000FFFF0E03F5
:104CF00000000000000000000707000000000000A6
:104D000000000000000000000000000000000000A3
:104D100080C0E06060E0C080000000008F1F1818B5
:104D20001830F1E1000000000307060E0E0607032D
:104D30000000000000000000000000000000006013
:104D40006060FFFF60606060000000000000FFFF27
:104D5000000000000000000000000307060E0E0621
:104D6000000000000000000000000000000000E063
:104D7000E0000000000000E0E00000FFFF00000095
:104D80000000E0FFFF00000107070E0C060301070B
:104D9000070000000000000000000000000000E02C
:104DA000E0000000000080E020000000077FF080AD
:104DB000C0FC3F03000000000000070F0F010000CF
:104DC0000000000000000000000000000000E0E023
:104DD000000080E0E00000C0E020003FFE80FF0314
:104DE0001FFCC0FF0F0000000F0F0300000F0F0398
:104DF0000000000000000000000000000000002093
:104E0000E0C000000080E0600000000000C3EF7C14
:104E10007EE781000000000407070100000107068B
:104E2000000000000000000000000000000000E0A2
:104E3000E0000000000080E0600000000F7FF080D4
:104E4000C0FC3F0300000000E0C0E77F1F0100003E
:104E50000000000000000000000000000000000052
:104E6000606060606060E0E00000000000C0F0385A
:104E70001E070300000000060707060606060606D2
:104E8000000000000000000000F81808000000000A
:104E90000000000080FF0000000000000000000390
:104EA00007FF00000000000000000000003F7060ED
:104EB00000000000000000FFFF00000000000000F4
:104EC000000000FFFF00000000000000000000FFE5
:104ED000FF00000000000000000000FFFF000000D5
:104EE0000000000808F8F8000000000000000000C2
:104EF000007FFF00000000000000000000FCFF0336
:104F00000000000000000060607F3F000000000023
:104F1000000000101C0E0E0C387070380C000000E1
:104F20000000000000000000000000000000000081
:104F30000000000000000000000000000000000071
:104F400000000000A1B7A1B7A1B7B3F6BFE22D2DB5
:104F5000BFA8D0F2C1D0BAC53A3078253038582C25
:104F60000909B3F6BFE2CAB1BCE4B1EABCC7A3BA4F
:104F70002564206461792C256420686F75722C2566
:104F800064206D696E757465732C0909CDA3B3B582
:104F9000B7D1D3C3A3BA25642C0909BFA8C4DAD3F7
:104FA000E0B6EEA3BA25640909000000A1B7A1B7D5
:104FB000A1B7C8EBBFE22D2DBFA8D0F2C1D0BAC5B2
:104FC0003A3078253038582C0909C8EBBFE2CAB10D
:104FD000BCE4B1EABCC7A3BA2564206461792C257E
:104FE0006420686F75722C2564206D696E75746518
:104FF000732C0909BFA8C4DAD3E0B6EEA3BA2564BE
:1050000009090000245000080000002024000000CE
:105010004028000848500008240000200408000030
:1050200050280008000000000102030401020304EC
:1050300006070809020406080000000000FFFFFF41
:08504000FFFFFF00000000006B
:0400000508000131BD
:00000001FF
